{
  "contractName": "Prescriptions",
  "abi": [
    {
      "inputs": [],
      "payable": false,
      "stateMutability": "nonpayable",
      "type": "constructor"
    },
    {
      "constant": true,
      "inputs": [
        {
          "internalType": "uint256",
          "name": "",
          "type": "uint256"
        }
      ],
      "name": "prescription",
      "outputs": [
        {
          "internalType": "address",
          "name": "physician",
          "type": "address"
        },
        {
          "internalType": "address",
          "name": "insured",
          "type": "address"
        },
        {
          "internalType": "address",
          "name": "pharmacist",
          "type": "address"
        },
        {
          "internalType": "bool",
          "name": "pharmacistEqualsInsured",
          "type": "bool"
        },
        {
          "internalType": "string",
          "name": "status",
          "type": "string"
        },
        {
          "internalType": "string",
          "name": "medicine_name",
          "type": "string"
        },
        {
          "internalType": "string",
          "name": "medicine_amount",
          "type": "string"
        }
      ],
      "payable": false,
      "stateMutability": "view",
      "type": "function"
    },
    {
      "constant": true,
      "inputs": [
        {
          "internalType": "address",
          "name": "",
          "type": "address"
        },
        {
          "internalType": "uint256",
          "name": "",
          "type": "uint256"
        }
      ],
      "name": "prescriptionInsured",
      "outputs": [
        {
          "internalType": "uint256",
          "name": "",
          "type": "uint256"
        }
      ],
      "payable": false,
      "stateMutability": "view",
      "type": "function"
    },
    {
      "constant": true,
      "inputs": [
        {
          "internalType": "address",
          "name": "",
          "type": "address"
        },
        {
          "internalType": "uint256",
          "name": "",
          "type": "uint256"
        }
      ],
      "name": "prescriptionPharmacist",
      "outputs": [
        {
          "internalType": "uint256",
          "name": "",
          "type": "uint256"
        }
      ],
      "payable": false,
      "stateMutability": "view",
      "type": "function"
    },
    {
      "constant": true,
      "inputs": [
        {
          "internalType": "address",
          "name": "",
          "type": "address"
        },
        {
          "internalType": "uint256",
          "name": "",
          "type": "uint256"
        }
      ],
      "name": "prescriptionPhysician",
      "outputs": [
        {
          "internalType": "uint256",
          "name": "",
          "type": "uint256"
        }
      ],
      "payable": false,
      "stateMutability": "view",
      "type": "function"
    },
    {
      "constant": true,
      "inputs": [],
      "name": "verifying_institution",
      "outputs": [
        {
          "internalType": "address",
          "name": "",
          "type": "address"
        }
      ],
      "payable": false,
      "stateMutability": "view",
      "type": "function"
    },
    {
      "constant": false,
      "inputs": [
        {
          "internalType": "address",
          "name": "smart_contract_key",
          "type": "address"
        }
      ],
      "name": "establishConnectionToUserSmartContract",
      "outputs": [],
      "payable": false,
      "stateMutability": "nonpayable",
      "type": "function"
    },
    {
      "constant": false,
      "inputs": [
        {
          "components": [
            {
              "internalType": "address",
              "name": "physician",
              "type": "address"
            },
            {
              "internalType": "address",
              "name": "insured",
              "type": "address"
            },
            {
              "internalType": "address",
              "name": "pharmacist",
              "type": "address"
            },
            {
              "internalType": "bool",
              "name": "pharmacistEqualsInsured",
              "type": "bool"
            },
            {
              "internalType": "string",
              "name": "status",
              "type": "string"
            },
            {
              "internalType": "string",
              "name": "medicine_name",
              "type": "string"
            },
            {
              "internalType": "string",
              "name": "medicine_amount",
              "type": "string"
            }
          ],
          "internalType": "struct Prescriptions.Prescription",
          "name": "prescription_",
          "type": "tuple"
        }
      ],
      "name": "newPrescription",
      "outputs": [],
      "payable": false,
      "stateMutability": "nonpayable",
      "type": "function"
    },
    {
      "constant": false,
      "inputs": [
        {
          "internalType": "uint256",
          "name": "prescription_id_",
          "type": "uint256"
        },
        {
          "internalType": "address",
          "name": "pharmacist",
          "type": "address"
        }
      ],
      "name": "transferPrescriptionToPharmacist",
      "outputs": [],
      "payable": false,
      "stateMutability": "nonpayable",
      "type": "function"
    },
    {
      "constant": false,
      "inputs": [
        {
          "internalType": "uint256",
          "name": "prescription_id_",
          "type": "uint256"
        }
      ],
      "name": "redeemPrescription",
      "outputs": [],
      "payable": false,
      "stateMutability": "nonpayable",
      "type": "function"
    },
    {
      "constant": false,
      "inputs": [
        {
          "internalType": "uint256",
          "name": "prescription_id_",
          "type": "uint256"
        }
      ],
      "name": "getPrescription",
      "outputs": [
        {
          "components": [
            {
              "internalType": "address",
              "name": "physician",
              "type": "address"
            },
            {
              "internalType": "address",
              "name": "insured",
              "type": "address"
            },
            {
              "internalType": "address",
              "name": "pharmacist",
              "type": "address"
            },
            {
              "internalType": "bool",
              "name": "pharmacistEqualsInsured",
              "type": "bool"
            },
            {
              "internalType": "string",
              "name": "status",
              "type": "string"
            },
            {
              "internalType": "string",
              "name": "medicine_name",
              "type": "string"
            },
            {
              "internalType": "string",
              "name": "medicine_amount",
              "type": "string"
            }
          ],
          "internalType": "struct Prescriptions.Prescription",
          "name": "",
          "type": "tuple"
        }
      ],
      "payable": false,
      "stateMutability": "nonpayable",
      "type": "function"
    },
    {
      "constant": false,
      "inputs": [
        {
          "internalType": "address",
          "name": "public_key",
          "type": "address"
        }
      ],
      "name": "getPhysicianPrescriptionsIDs",
      "outputs": [
        {
          "internalType": "uint256[]",
          "name": "",
          "type": "uint256[]"
        }
      ],
      "payable": false,
      "stateMutability": "nonpayable",
      "type": "function"
    },
    {
      "constant": false,
      "inputs": [
        {
          "internalType": "address",
          "name": "public_key",
          "type": "address"
        }
      ],
      "name": "getInsuredPrescriptionsIDs",
      "outputs": [
        {
          "internalType": "uint256[]",
          "name": "",
          "type": "uint256[]"
        }
      ],
      "payable": false,
      "stateMutability": "nonpayable",
      "type": "function"
    },
    {
      "constant": false,
      "inputs": [
        {
          "internalType": "address",
          "name": "public_key",
          "type": "address"
        }
      ],
      "name": "getPharmacistPrescriptionsIDs",
      "outputs": [
        {
          "internalType": "uint256[]",
          "name": "",
          "type": "uint256[]"
        }
      ],
      "payable": false,
      "stateMutability": "nonpayable",
      "type": "function"
    }
  ],
  "bytecode": "0x608060405234801561001057600080fd5b50336000806101000a81548173ffffffffffffffffffffffffffffffffffffffff021916908373ffffffffffffffffffffffffffffffffffffffff1602179055506000600281905550612e75806100686000396000f3fe608060405234801561001057600080fd5b50600436106100cf5760003560e01c806381eceeb71161008c578063b16928a411610066578063b16928a41461023c578063b73c03f814610258578063be03178314610288578063fb589cdd146102b8576100cf565b806381eceeb7146101d2578063a6127293146101f0578063a6d5dcd21461020c576100cf565b80631d1a34da146100d45780631ea72e8c146100f0578063287eda05146101205780634315f10f14610156578063626d7f6a146101865780636f16af10146101a2575b600080fd5b6100ee60048036036100e9919081019061235a565b6102e8565b005b61010a60048036036101059190810190612262565b610afb565b6040516101179190612a46565b60405180910390f35b61013a60048036036101359190810190612331565b610b92565b60405161014d97969594939291906129c2565b60405180910390f35b610170600480360361016b919081019061228b565b610e09565b60405161017d9190612c42565b60405180910390f35b6101a0600480360361019b91908101906122f0565b610e37565b005b6101bc60048036036101b79190810190612331565b611332565b6040516101c99190612c20565b60405180910390f35b6101da611662565b6040516101e791906129a7565b60405180910390f35b61020a60048036036102059190810190612262565b611687565b005b61022660048036036102219190810190612262565b61175a565b6040516102339190612a46565b60405180910390f35b61025660048036036102519190810190612331565b6117f1565b005b610272600480360361026d919081019061228b565b611ea9565b60405161027f9190612c42565b60405180910390f35b6102a2600480360361029d9190810190612262565b611ed7565b6040516102af9190612a46565b60405180910390f35b6102d260048036036102cd919081019061228b565b611f6e565b6040516102df9190612c42565b60405180910390f35b6102f0611f9c565b600660008481526020019081526020016000206040518060e00160405290816000820160009054906101000a900473ffffffffffffffffffffffffffffffffffffffff1673ffffffffffffffffffffffffffffffffffffffff1673ffffffffffffffffffffffffffffffffffffffff1681526020016001820160009054906101000a900473ffffffffffffffffffffffffffffffffffffffff1673ffffffffffffffffffffffffffffffffffffffff1673ffffffffffffffffffffffffffffffffffffffff1681526020016002820160009054906101000a900473ffffffffffffffffffffffffffffffffffffffff1673ffffffffffffffffffffffffffffffffffffffff1673ffffffffffffffffffffffffffffffffffffffff1681526020016002820160149054906101000a900460ff16151515158152602001600382018054600181600116156101000203166002900480601f0160208091040260200160405190810160405280929190818152602001828054600181600116156101000203166002900480156104c45780601f10610499576101008083540402835291602001916104c4565b820191906000526020600020905b8154815290600101906020018083116104a757829003601f168201915b50505050508152602001600482018054600181600116156101000203166002900480601f0160208091040260200160405190810160405280929190818152602001828054600181600116156101000203166002900480156105665780601f1061053b57610100808354040283529160200191610566565b820191906000526020600020905b81548152906001019060200180831161054957829003601f168201915b50505050508152602001600582018054600181600116156101000203166002900480601f0160208091040260200160405190810160405280929190818152602001828054600181600116156101000203166002900480156106085780601f106105dd57610100808354040283529160200191610608565b820191906000526020600020905b8154815290600101906020018083116105eb57829003601f168201915b5050505050815250509050806020015173ffffffffffffffffffffffffffffffffffffffff163373ffffffffffffffffffffffffffffffffffffffff1614610685576040517f08c379a000000000000000000000000000000000000000000000000000000000815260040161067c90612bb2565b60405180910390fd5b60011515600160009054906101000a900473ffffffffffffffffffffffffffffffffffffffff1673ffffffffffffffffffffffffffffffffffffffff1663f7350e6083602001516040518263ffffffff1660e01b81526004016106e89190612bd2565b60206040518083038186803b15801561070057600080fd5b505afa158015610714573d6000803e3d6000fd5b505050506040513d601f19601f8201168201806040525061073891908101906122c7565b15151461077a576040517f08c379a000000000000000000000000000000000000000000000000000000000815260040161077190612a68565b60405180910390fd5b60011515600160009054906101000a900473ffffffffffffffffffffffffffffffffffffffff1673ffffffffffffffffffffffffffffffffffffffff1663f7350e60846040518263ffffffff1660e01b81526004016107d99190612ac8565b60206040518083038186803b1580156107f157600080fd5b505afa158015610805573d6000803e3d6000fd5b505050506040513d601f19601f8201168201806040525061082991908101906122c7565b15151461086b576040517f08c379a000000000000000000000000000000000000000000000000000000000815260040161086290612b92565b60405180910390fd5b6040518060e00160405280826000015173ffffffffffffffffffffffffffffffffffffffff168152602001826020015173ffffffffffffffffffffffffffffffffffffffff1681526020018373ffffffffffffffffffffffffffffffffffffffff1681526020018260600151151581526020016040518060400160405280600a81526020017f506861726d61636973740000000000000000000000000000000000000000000081525081526020018260a0015181526020018260c001518152506006600085815260200190815260200160002060008201518160000160006101000a81548173ffffffffffffffffffffffffffffffffffffffff021916908373ffffffffffffffffffffffffffffffffffffffff16021790555060208201518160010160006101000a81548173ffffffffffffffffffffffffffffffffffffffff021916908373ffffffffffffffffffffffffffffffffffffffff16021790555060408201518160020160006101000a81548173ffffffffffffffffffffffffffffffffffffffff021916908373ffffffffffffffffffffffffffffffffffffffff16021790555060608201518160020160146101000a81548160ff0219169083151502179055506080820151816003019080519060200190610a4f92919061201d565b5060a0820151816004019080519060200190610a6c92919061201d565b5060c0820151816005019080519060200190610a8992919061201d565b50905050600560008373ffffffffffffffffffffffffffffffffffffffff1673ffffffffffffffffffffffffffffffffffffffff168152602001908152602001600020839080600181540180825580915050906001820390600052602060002001600090919290919091505550505050565b6060600460008373ffffffffffffffffffffffffffffffffffffffff1673ffffffffffffffffffffffffffffffffffffffff168152602001908152602001600020805480602002602001604051908101604052809291908181526020018280548015610b8657602002820191906000526020600020905b815481526020019060010190808311610b72575b50505050509050919050565b60066020528060005260406000206000915090508060000160009054906101000a900473ffffffffffffffffffffffffffffffffffffffff16908060010160009054906101000a900473ffffffffffffffffffffffffffffffffffffffff16908060020160009054906101000a900473ffffffffffffffffffffffffffffffffffffffff16908060020160149054906101000a900460ff1690806003018054600181600116156101000203166002900480601f016020809104026020016040519081016040528092919081815260200182805460018160011615610100020316600290048015610cc35780601f10610c9857610100808354040283529160200191610cc3565b820191906000526020600020905b815481529060010190602001808311610ca657829003601f168201915b505050505090806004018054600181600116156101000203166002900480601f016020809104026020016040519081016040528092919081815260200182805460018160011615610100020316600290048015610d615780601f10610d3657610100808354040283529160200191610d61565b820191906000526020600020905b815481529060010190602001808311610d4457829003601f168201915b505050505090806005018054600181600116156101000203166002900480601f016020809104026020016040519081016040528092919081815260200182805460018160011615610100020316600290048015610dff5780601f10610dd457610100808354040283529160200191610dff565b820191906000526020600020905b815481529060010190602001808311610de257829003601f168201915b5050505050905087565b60036020528160005260406000208181548110610e2257fe5b90600052602060002001600091509150505481565b60011515600160009054906101000a900473ffffffffffffffffffffffffffffffffffffffff1673ffffffffffffffffffffffffffffffffffffffff1663f7350e60336040518263ffffffff1660e01b8152600401610e969190612b24565b60206040518083038186803b158015610eae57600080fd5b505afa158015610ec2573d6000803e3d6000fd5b505050506040513d601f19601f82011682018060405250610ee691908101906122c7565b151514610f28576040517f08c379a0000000000000000000000000000000000000000000000000000000008152600401610f1f90612c00565b60405180910390fd5b60011515600160009054906101000a900473ffffffffffffffffffffffffffffffffffffffff1673ffffffffffffffffffffffffffffffffffffffff1663f7350e6083602001516040518263ffffffff1660e01b8152600401610f8b9190612bd2565b60206040518083038186803b158015610fa357600080fd5b505afa158015610fb7573d6000803e3d6000fd5b505050506040513d601f19601f82011682018060405250610fdb91908101906122c7565b15151461101d576040517f08c379a000000000000000000000000000000000000000000000000000000000815260040161101490612b72565b60405180910390fd5b6040518060e00160405280826000015173ffffffffffffffffffffffffffffffffffffffff168152602001826020015173ffffffffffffffffffffffffffffffffffffffff168152602001826040015173ffffffffffffffffffffffffffffffffffffffff1681526020018260600151151581526020016040518060400160405280600781526020017f50617469656e740000000000000000000000000000000000000000000000000081525081526020018260a0015181526020018260c0015181525060066000600254815260200190815260200160002060008201518160000160006101000a81548173ffffffffffffffffffffffffffffffffffffffff021916908373ffffffffffffffffffffffffffffffffffffffff16021790555060208201518160010160006101000a81548173ffffffffffffffffffffffffffffffffffffffff021916908373ffffffffffffffffffffffffffffffffffffffff16021790555060408201518160020160006101000a81548173ffffffffffffffffffffffffffffffffffffffff021916908373ffffffffffffffffffffffffffffffffffffffff16021790555060608201518160020160146101000a81548160ff021916908315150217905550608082015181600301908051906020019061120792919061201d565b5060a082015181600401908051906020019061122492919061201d565b5060c082015181600501908051906020019061124192919061201d565b5090505060036000826000015173ffffffffffffffffffffffffffffffffffffffff1673ffffffffffffffffffffffffffffffffffffffff168152602001908152602001600020600254908060018154018082558091505090600182039060005260206000200160009091929091909150555060046000826020015173ffffffffffffffffffffffffffffffffffffffff1673ffffffffffffffffffffffffffffffffffffffff168152602001908152602001600020600254908060018154018082558091505090600182039060005260206000200160009091929091909150555060016002540160028190555050565b61133a611f9c565b600660008381526020019081526020016000206040518060e00160405290816000820160009054906101000a900473ffffffffffffffffffffffffffffffffffffffff1673ffffffffffffffffffffffffffffffffffffffff1673ffffffffffffffffffffffffffffffffffffffff1681526020016001820160009054906101000a900473ffffffffffffffffffffffffffffffffffffffff1673ffffffffffffffffffffffffffffffffffffffff1673ffffffffffffffffffffffffffffffffffffffff1681526020016002820160009054906101000a900473ffffffffffffffffffffffffffffffffffffffff1673ffffffffffffffffffffffffffffffffffffffff1673ffffffffffffffffffffffffffffffffffffffff1681526020016002820160149054906101000a900460ff16151515158152602001600382018054600181600116156101000203166002900480601f01602080910402602001604051908101604052809291908181526020018280546001816001161561010002031660029004801561150e5780601f106114e35761010080835404028352916020019161150e565b820191906000526020600020905b8154815290600101906020018083116114f157829003601f168201915b50505050508152602001600482018054600181600116156101000203166002900480601f0160208091040260200160405190810160405280929190818152602001828054600181600116156101000203166002900480156115b05780601f10611585576101008083540402835291602001916115b0565b820191906000526020600020905b81548152906001019060200180831161159357829003601f168201915b50505050508152602001600582018054600181600116156101000203166002900480601f0160208091040260200160405190810160405280929190818152602001828054600181600116156101000203166002900480156116525780601f1061162757610100808354040283529160200191611652565b820191906000526020600020905b81548152906001019060200180831161163557829003601f168201915b5050505050815250509050919050565b6000809054906101000a900473ffffffffffffffffffffffffffffffffffffffff1681565b6000809054906101000a900473ffffffffffffffffffffffffffffffffffffffff1673ffffffffffffffffffffffffffffffffffffffff163373ffffffffffffffffffffffffffffffffffffffff1614611716576040517f08c379a000000000000000000000000000000000000000000000000000000000815260040161170d90612aa8565b60405180910390fd5b80600160006101000a81548173ffffffffffffffffffffffffffffffffffffffff021916908373ffffffffffffffffffffffffffffffffffffffff16021790555050565b6060600360008373ffffffffffffffffffffffffffffffffffffffff1673ffffffffffffffffffffffffffffffffffffffff1681526020019081526020016000208054806020026020016040519081016040528092919081815260200182805480156117e557602002820191906000526020600020905b8154815260200190600101908083116117d1575b50505050509050919050565b6117f9611f9c565b600660008381526020019081526020016000206040518060e00160405290816000820160009054906101000a900473ffffffffffffffffffffffffffffffffffffffff1673ffffffffffffffffffffffffffffffffffffffff1673ffffffffffffffffffffffffffffffffffffffff1681526020016001820160009054906101000a900473ffffffffffffffffffffffffffffffffffffffff1673ffffffffffffffffffffffffffffffffffffffff1673ffffffffffffffffffffffffffffffffffffffff1681526020016002820160009054906101000a900473ffffffffffffffffffffffffffffffffffffffff1673ffffffffffffffffffffffffffffffffffffffff1673ffffffffffffffffffffffffffffffffffffffff1681526020016002820160149054906101000a900460ff16151515158152602001600382018054600181600116156101000203166002900480601f0160208091040260200160405190810160405280929190818152602001828054600181600116156101000203166002900480156119cd5780601f106119a2576101008083540402835291602001916119cd565b820191906000526020600020905b8154815290600101906020018083116119b057829003601f168201915b50505050508152602001600482018054600181600116156101000203166002900480601f016020809104026020016040519081016040528092919081815260200182805460018160011615610100020316600290048015611a6f5780601f10611a4457610100808354040283529160200191611a6f565b820191906000526020600020905b815481529060010190602001808311611a5257829003601f168201915b50505050508152602001600582018054600181600116156101000203166002900480601f016020809104026020016040519081016040528092919081815260200182805460018160011615610100020316600290048015611b115780601f10611ae657610100808354040283529160200191611b11565b820191906000526020600020905b815481529060010190602001808311611af457829003601f168201915b505050505081525050905060011515600160009054906101000a900473ffffffffffffffffffffffffffffffffffffffff1673ffffffffffffffffffffffffffffffffffffffff1663f7350e60336040518263ffffffff1660e01b8152600401611b7b9190612af6565b60206040518083038186803b158015611b9357600080fd5b505afa158015611ba7573d6000803e3d6000fd5b505050506040513d601f19601f82011682018060405250611bcb91908101906122c7565b151514611c0d576040517f08c379a0000000000000000000000000000000000000000000000000000000008152600401611c0490612b52565b60405180910390fd5b806040015173ffffffffffffffffffffffffffffffffffffffff163373ffffffffffffffffffffffffffffffffffffffff1614611c7f576040517f08c379a0000000000000000000000000000000000000000000000000000000008152600401611c7690612a88565b60405180910390fd5b6040518060e00160405280826000015173ffffffffffffffffffffffffffffffffffffffff168152602001826020015173ffffffffffffffffffffffffffffffffffffffff168152602001826040015173ffffffffffffffffffffffffffffffffffffffff1681526020018260600151151581526020016040518060400160405280600881526020017f52656465656d656400000000000000000000000000000000000000000000000081525081526020018260a0015181526020018260c001518152506006600084815260200190815260200160002060008201518160000160006101000a81548173ffffffffffffffffffffffffffffffffffffffff021916908373ffffffffffffffffffffffffffffffffffffffff16021790555060208201518160010160006101000a81548173ffffffffffffffffffffffffffffffffffffffff021916908373ffffffffffffffffffffffffffffffffffffffff16021790555060408201518160020160006101000a81548173ffffffffffffffffffffffffffffffffffffffff021916908373ffffffffffffffffffffffffffffffffffffffff16021790555060608201518160020160146101000a81548160ff0219169083151502179055506080820151816003019080519060200190611e6792919061201d565b5060a0820151816004019080519060200190611e8492919061201d565b5060c0820151816005019080519060200190611ea192919061201d565b509050505050565b60046020528160005260406000208181548110611ec257fe5b90600052602060002001600091509150505481565b6060600560008373ffffffffffffffffffffffffffffffffffffffff1673ffffffffffffffffffffffffffffffffffffffff168152602001908152602001600020805480602002602001604051908101604052809291908181526020018280548015611f6257602002820191906000526020600020905b815481526020019060010190808311611f4e575b50505050509050919050565b60056020528160005260406000208181548110611f8757fe5b90600052602060002001600091509150505481565b6040518060e00160405280600073ffffffffffffffffffffffffffffffffffffffff168152602001600073ffffffffffffffffffffffffffffffffffffffff168152602001600073ffffffffffffffffffffffffffffffffffffffff1681526020016000151581526020016060815260200160608152602001606081525090565b828054600181600116156101000203166002900490600052602060002090601f016020900481019282601f1061205e57805160ff191683800117855561208c565b8280016001018555821561208c579182015b8281111561208b578251825591602001919060010190612070565b5b509050612099919061209d565b5090565b6120bf91905b808211156120bb5760008160009055506001016120a3565b5090565b90565b6000813590506120d181612ded565b92915050565b6000813590506120e681612e04565b92915050565b6000815190506120fb81612e04565b92915050565b600082601f83011261211257600080fd5b813561212561212082612c8a565b612c5d565b9150808252602083016020830185838301111561214157600080fd5b61214c838284612d9a565b50505092915050565b600060e0828403121561216757600080fd5b61217160e0612c5d565b90506000612181848285016120c2565b6000830152506020612195848285016120c2565b60208301525060406121a9848285016120c2565b60408301525060606121bd848285016120d7565b606083015250608082013567ffffffffffffffff8111156121dd57600080fd5b6121e984828501612101565b60808301525060a082013567ffffffffffffffff81111561220957600080fd5b61221584828501612101565b60a08301525060c082013567ffffffffffffffff81111561223557600080fd5b61224184828501612101565b60c08301525092915050565b60008135905061225c81612e1b565b92915050565b60006020828403121561227457600080fd5b6000612282848285016120c2565b91505092915050565b6000806040838503121561229e57600080fd5b60006122ac858286016120c2565b92505060206122bd8582860161224d565b9150509250929050565b6000602082840312156122d957600080fd5b60006122e7848285016120ec565b91505092915050565b60006020828403121561230257600080fd5b600082013567ffffffffffffffff81111561231c57600080fd5b61232884828501612155565b91505092915050565b60006020828403121561234357600080fd5b60006123518482850161224d565b91505092915050565b6000806040838503121561236d57600080fd5b600061237b8582860161224d565b925050602061238c858286016120c2565b9150509250929050565b60006123a28383612989565b60208301905092915050565b6123b781612d64565b82525050565b6123c681612d1c565b82525050565b6123d581612d1c565b82525050565b60006123e682612cc6565b6123f08185612ce9565b93506123fb83612cb6565b8060005b8381101561242c5781516124138882612396565b975061241e83612cdc565b9250506001810190506123ff565b5085935050505092915050565b61244281612d2e565b82525050565b61245181612d2e565b82525050565b600061246282612cd1565b61246c8185612cfa565b935061247c818560208601612da9565b61248581612ddc565b840191505092915050565b600061249b82612cd1565b6124a58185612d0b565b93506124b5818560208601612da9565b6124be81612ddc565b840191505092915050565b60006124d6603983612d0b565b91507f596f7520646f6e2774206861766520746865207072656d697373696f6e20746f60008301527f207472616e73666572206120707265736372697074696f6e21000000000000006020830152604082019050919050565b600061253c603c83612d0b565b91507f54686520707265736372697074696f6e20796f752074727920746f207265646560008301527f656d206973206e6f7420796f757220707265736372697074696f6e21000000006020830152604082019050919050565b60006125a2604f83612d0b565b91507f4f6e6c79207468652076657269667920696e737469747574696f6e206861732060008301527f746865207072656d697373696f6e20746f20636f6e6e6563742070726573637260208301527f697074696f6e20746f20757365722100000000000000000000000000000000006040830152606082019050919050565b600061262e600a83612d0b565b91507f706861726d6163697374000000000000000000000000000000000000000000006000830152602082019050919050565b600061266e600983612d0b565b91507f70687973696369616e00000000000000000000000000000000000000000000006000830152602082019050919050565b60006126ae603783612d0b565b91507f596f7520646f6e2774206861766520746865207072656d697373696f6e20746f60008301527f2072656465656d206120707265736372697074696f6e210000000000000000006020830152604082019050919050565b6000612714602b83612d0b565b91507f5468697320696e7375726564206973206e6f742072656769737465726564206f60008301527f72207665726966696564210000000000000000000000000000000000000000006020830152604082019050919050565b600061277a602e83612d0b565b91507f5468697320706861726d6163697374206973206e6f742072656769737465726560008301527f64206f72207665726966696564210000000000000000000000000000000000006020830152604082019050919050565b60006127e0603e83612d0b565b91507f54686520707265736372697074696f6e20796f752074727920746f207472616e60008301527f73666572206973206e6f7420796f757220707265736372697074696f6e2100006020830152604082019050919050565b6000612846600783612d0b565b91507f696e7375726564000000000000000000000000000000000000000000000000006000830152602082019050919050565b6000612886603783612d0b565b91507f596f7520646f6e2774206861766520746865207072656d697373696f6e20746f60008301527f20637265617465206120707265736372697074696f6e210000000000000000006020830152604082019050919050565b600060e0830160008301516128f760008601826123bd565b50602083015161290a60208601826123bd565b50604083015161291d60408601826123bd565b5060608301516129306060860182612439565b50608083015184820360808601526129488282612457565b91505060a083015184820360a08601526129628282612457565b91505060c083015184820360c086015261297c8282612457565b9150508091505092915050565b61299281612d5a565b82525050565b6129a181612d5a565b82525050565b60006020820190506129bc60008301846123cc565b92915050565b600060e0820190506129d7600083018a6123cc565b6129e460208301896123cc565b6129f160408301886123cc565b6129fe6060830187612448565b8181036080830152612a108186612490565b905081810360a0830152612a248185612490565b905081810360c0830152612a388184612490565b905098975050505050505050565b60006020820190508181036000830152612a6081846123db565b905092915050565b60006020820190508181036000830152612a81816124c9565b9050919050565b60006020820190508181036000830152612aa18161252f565b9050919050565b60006020820190508181036000830152612ac181612595565b9050919050565b60006040820190508181036000830152612ae181612621565b9050612af060208301846123cc565b92915050565b60006040820190508181036000830152612b0f81612621565b9050612b1e60208301846123ae565b92915050565b60006040820190508181036000830152612b3d81612661565b9050612b4c60208301846123ae565b92915050565b60006020820190508181036000830152612b6b816126a1565b9050919050565b60006020820190508181036000830152612b8b81612707565b9050919050565b60006020820190508181036000830152612bab8161276d565b9050919050565b60006020820190508181036000830152612bcb816127d3565b9050919050565b60006040820190508181036000830152612beb81612839565b9050612bfa60208301846123cc565b92915050565b60006020820190508181036000830152612c1981612879565b9050919050565b60006020820190508181036000830152612c3a81846128df565b905092915050565b6000602082019050612c576000830184612998565b92915050565b6000604051905081810181811067ffffffffffffffff82111715612c8057600080fd5b8060405250919050565b600067ffffffffffffffff821115612ca157600080fd5b601f19601f8301169050602081019050919050565b6000819050602082019050919050565b600081519050919050565b600081519050919050565b6000602082019050919050565b600082825260208201905092915050565b600082825260208201905092915050565b600082825260208201905092915050565b6000612d2782612d3a565b9050919050565b60008115159050919050565b600073ffffffffffffffffffffffffffffffffffffffff82169050919050565b6000819050919050565b6000612d6f82612d76565b9050919050565b6000612d8182612d88565b9050919050565b6000612d9382612d3a565b9050919050565b82818337600083830152505050565b60005b83811015612dc7578082015181840152602081019050612dac565b83811115612dd6576000848401525b50505050565b6000601f19601f8301169050919050565b612df681612d1c565b8114612e0157600080fd5b50565b612e0d81612d2e565b8114612e1857600080fd5b50565b612e2481612d5a565b8114612e2f57600080fd5b5056fea365627a7a723158208e3e11cebf1204b46208774a4f60cba2c69fb8b55df1bf163e4163cf955d3e856c6578706572696d656e74616cf564736f6c63430005100040",
  "source": "/**\n * @author Valentin Mueller <https://github.com/ValentinFFM>\n */\n\n// SPDX-License-Identifier: MIT\npragma solidity >=0.4.21 <0.7.0;\n\n// Experimental function is necessary to allow mappings with structs.\npragma experimental ABIEncoderV2;\n\n// Import of Smart Contract \"User\" to interact with the functionalities of it\nimport \"./User.sol\";\n\n/**\n    The Smart Contract Prescriptions is responsible for storing the information of all prescriptions.\n    Furthermore it provides all necessary functions to interact with prescriptions.\n */\ncontract Prescriptions {\n\n    address public verifying_institution;\n    User UserContract;\n    uint prescription_id;\n\n    // Assigns the creator of the smart contract as verifying institution and sets the first prescription_id.\n    constructor () public {\n        verifying_institution = msg.sender;\n        prescription_id = 0;\n    }\n\n    // Defining struct that contains all variables that are needed for a prescription.\n    struct Prescription {\n        address physician;\n        address insured;\n        address pharmacist;\n\n        bool pharmacistEqualsInsured;\n        string status;\n\n        string medicine_name;\n        string medicine_amount;\n    }\n\n    // For every user group the public keys of the users are mapped to an array containing prescription-ids.\n    mapping(address => uint[]) public prescriptionPhysician;\n    mapping(address => uint[]) public prescriptionInsured;\n    mapping(address => uint[]) public prescriptionPharmacist;\n\n    // Mapping prescription-ids to the corresponding prescription struct.\n    mapping(uint => Prescription) public prescription;\n\n    // Function for connecting the Smart Contract user to the Smart Contract prescription.\n    function establishConnectionToUserSmartContract(address smart_contract_key) public {\n        require(msg.sender == verifying_institution, \"Only the verify institution has the premission to connect prescription to user!\");\n        UserContract = User(smart_contract_key);\n    }\n\n    function newPrescription(Prescription memory prescription_) public{\n        require(UserContract.checkVerification('physician', msg.sender) == true, \"You don't have the premission to create a prescription!\");\n        require(UserContract.checkVerification('insured', prescription_.insured) == true, \"This insured is not registered or verified!\");\n\n        prescription[prescription_id] = Prescription(prescription_.physician, prescription_.insured, prescription_.pharmacist, prescription_.pharmacistEqualsInsured, 'Patient', prescription_.medicine_name, prescription_.medicine_amount);\n        prescriptionPhysician[prescription_.physician].push(prescription_id);\n        prescriptionInsured[prescription_.insured].push(prescription_id);\n        prescription_id = prescription_id + 1;\n    }\n\n    function transferPrescriptionToPharmacist(uint prescription_id_, address pharmacist) public {\n        Prescription memory prescription_ = prescription[prescription_id_];\n\n        require(msg.sender == prescription_.insured, \"The prescription you try to transfer is not your prescription!\");\n        require(UserContract.checkVerification('insured', prescription_.insured) == true, \"You don't have the premission to transfer a prescription!\");\n        require(UserContract.checkVerification('pharmacist', pharmacist) == true, \"This pharmacist is not registered or verified!\");\n    \n        prescription[prescription_id_] = Prescription(prescription_.physician, prescription_.insured, pharmacist, prescription_.pharmacistEqualsInsured, 'Pharmacist', prescription_.medicine_name, prescription_.medicine_amount);\n        prescriptionPharmacist[pharmacist].push(prescription_id_);\n\n    }\n\n    function redeemPrescription(uint prescription_id_) public {\n        Prescription memory prescription_ = prescription[prescription_id_];\n\n        require(UserContract.checkVerification('pharmacist', msg.sender) == true, \"You don't have the premission to redeem a prescription!\");\n        require(msg.sender == prescription_.pharmacist, \"The prescription you try to redeem is not your prescription!\");\n        \n        prescription[prescription_id_] = Prescription(prescription_.physician, prescription_.insured, prescription_.pharmacist, prescription_.pharmacistEqualsInsured, 'Redeemed', prescription_.medicine_name, prescription_.medicine_amount);\n    }\n\n    function getPrescription(uint prescription_id_) public returns (Prescription memory){\n        return prescription[prescription_id_];\n    }\n\n    function getPhysicianPrescriptionsIDs(address public_key) public returns (uint[] memory){\n        return prescriptionPhysician[public_key];\n    }\n\n    function getInsuredPrescriptionsIDs(address public_key) public returns (uint[] memory){\n        return prescriptionInsured[public_key];\n    }\n\n    function getPharmacistPrescriptionsIDs(address public_key) public returns (uint[] memory){\n        return prescriptionPharmacist[public_key];\n    }\n}\n",
  "sourcePath": "C:\\Users\\Tanya.WINDOWS10\\Desktop\\Ghfolders\\blockchain_e_prescription\\contracts\\Prescriptions.sol",
  "compiler": {
    "name": "solc",
    "version": "0.5.16+commit.9c3226ce.Emscripten.clang"
  },
  "schemaVersion": "3.4.6",
  "updatedAt": "2023-03-31T13:51:59.182Z",
  "networkType": "ethereum",
  "devdoc": {
    "methods": {}
  },
  "userdoc": {
    "methods": {},
    "notice": "The Smart Contract Prescriptions is responsible for storing the information of all prescriptions. Furthermore it provides all necessary functions to interact with prescriptions."
  }
}